{
  "_format": "hh-sol-artifact-1",
  "contractName": "gasChallenge",
  "sourceName": "contracts/gasChallenge.sol",
  "abi": [
    {
      "inputs": [],
      "name": "getSumOfArray",
      "outputs": [
        {
          "internalType": "uint256",
          "name": "",
          "type": "uint256"
        }
      ],
      "stateMutability": "view",
      "type": "function"
    },
    {
      "inputs": [],
      "name": "notOptimizedFunction",
      "outputs": [],
      "stateMutability": "nonpayable",
      "type": "function"
    },
    {
      "inputs": [],
      "name": "optimizedFunction",
      "outputs": [],
      "stateMutability": "nonpayable",
      "type": "function"
    }
  ],
  "bytecode": "0x608060405234801561001057600080fd5b50610298806100206000396000f3fe608060405234801561001057600080fd5b50600436106100415760003560e01c806368b5f223146100465780637ce418941461005057806380d2c8031461005a575b600080fd5b61004e610078565b005b6100586100b4565b005b610062610103565b60405161006f919061016d565b60405180910390f35b60005b600a8110156100b15760008082600a811061009957610098610188565b5b018190555080806100a9906101e6565b91505061007b565b50565b60005b600a811015610100576001600082600a81106100d6576100d5610188565b5b01541901600082600a81106100ee576100ed610188565b5b018190555080806001019150506100b7565b50565b6000806000905060005b600a81101561014c57600081600a811061012a57610129610188565b5b015482610137919061022e565b91508080610144906101e6565b91505061010d565b508091505090565b6000819050919050565b61016781610154565b82525050565b6000602082019050610182600083018461015e565b92915050565b7f4e487b7100000000000000000000000000000000000000000000000000000000600052603260045260246000fd5b7f4e487b7100000000000000000000000000000000000000000000000000000000600052601160045260246000fd5b60006101f182610154565b91507fffffffffffffffffffffffffffffffffffffffffffffffffffffffffffffffff8203610223576102226101b7565b5b600182019050919050565b600061023982610154565b915061024483610154565b925082820190508082111561025c5761025b6101b7565b5b9291505056fea264697066735822122065e53c34dcdba3b8cf1ad8cddadbf1f5fb2f22f10b9ccc75143b81c826ced4f664736f6c63430008120033",
  "linkReferences": {},
  "deployedLinkReferences": {}
}